{
  "_format": "hh-sol-artifact-1",
  "contractName": "Confido",
  "sourceName": "contracts/confido.sol",
  "abi": [
    {
      "inputs": [],
      "stateMutability": "nonpayable",
      "type": "constructor"
    },
    {
      "anonymous": false,
      "inputs": [
        {
          "indexed": false,
          "internalType": "bytes32",
          "name": "_transactionId",
          "type": "bytes32"
        },
        {
          "indexed": false,
          "internalType": "string",
          "name": "_serviceProviderUsername",
          "type": "string"
        },
        {
          "indexed": false,
          "internalType": "string",
          "name": "_serviceRecipientUsername",
          "type": "string"
        },
        {
          "indexed": false,
          "internalType": "uint256",
          "name": "_amount",
          "type": "uint256"
        }
      ],
      "name": "registeredTransaction",
      "type": "event"
    },
    {
      "anonymous": false,
      "inputs": [
        {
          "indexed": false,
          "internalType": "string",
          "name": "_username",
          "type": "string"
        },
        {
          "indexed": false,
          "internalType": "address",
          "name": "_userAddress",
          "type": "address"
        }
      ],
      "name": "registeredUser",
      "type": "event"
    },
    {
      "inputs": [],
      "name": "owner",
      "outputs": [
        {
          "internalType": "address",
          "name": "",
          "type": "address"
        }
      ],
      "stateMutability": "view",
      "type": "function"
    },
    {
      "inputs": [
        {
          "internalType": "string",
          "name": "_serviceProviderUsername",
          "type": "string"
        },
        {
          "internalType": "string",
          "name": "_serviceRecipientUsername",
          "type": "string"
        },
        {
          "internalType": "uint256",
          "name": "providerReputation",
          "type": "uint256"
        },
        {
          "internalType": "uint256",
          "name": "recipientReputation",
          "type": "uint256"
        },
        {
          "internalType": "uint256",
          "name": "_amount",
          "type": "uint256"
        }
      ],
      "name": "registerTransaction",
      "outputs": [
        {
          "internalType": "bytes32",
          "name": "",
          "type": "bytes32"
        }
      ],
      "stateMutability": "nonpayable",
      "type": "function"
    },
    {
      "inputs": [
        {
          "internalType": "string",
          "name": "_worldcoinId",
          "type": "string"
        },
        {
          "internalType": "string",
          "name": "_username",
          "type": "string"
        },
        {
          "internalType": "address payable",
          "name": "_userAddress",
          "type": "address"
        }
      ],
      "name": "registerUser",
      "outputs": [],
      "stateMutability": "nonpayable",
      "type": "function"
    },
    {
      "inputs": [
        {
          "internalType": "bytes32",
          "name": "",
          "type": "bytes32"
        }
      ],
      "name": "transactions",
      "outputs": [
        {
          "internalType": "address payable",
          "name": "serviceProvider",
          "type": "address"
        },
        {
          "internalType": "address payable",
          "name": "serviceRecipient",
          "type": "address"
        },
        {
          "internalType": "string",
          "name": "serviceProviderUsername",
          "type": "string"
        },
        {
          "internalType": "string",
          "name": "serviceRecipientUsername",
          "type": "string"
        },
        {
          "internalType": "uint256",
          "name": "amount",
          "type": "uint256"
        }
      ],
      "stateMutability": "view",
      "type": "function"
    },
    {
      "inputs": [
        {
          "internalType": "string",
          "name": "",
          "type": "string"
        }
      ],
      "name": "users",
      "outputs": [
        {
          "internalType": "string",
          "name": "username",
          "type": "string"
        },
        {
          "internalType": "address payable",
          "name": "userAddress",
          "type": "address"
        },
        {
          "internalType": "uint256",
          "name": "serviceProviderReputation",
          "type": "uint256"
        },
        {
          "internalType": "uint256",
          "name": "serviceRecipientReputation",
          "type": "uint256"
        }
      ],
      "stateMutability": "view",
      "type": "function"
    },
    {
      "inputs": [
        {
          "internalType": "string",
          "name": "",
          "type": "string"
        }
      ],
      "name": "worldcoinIdToUsername",
      "outputs": [
        {
          "internalType": "string",
          "name": "",
          "type": "string"
        }
      ],
      "stateMutability": "view",
      "type": "function"
    }
  ],
  "bytecode": "0x608060405234801561001057600080fd5b50336000806101000a81548173ffffffffffffffffffffffffffffffffffffffff021916908373ffffffffffffffffffffffffffffffffffffffff1602179055506116b7806100606000396000f3fe608060405234801561001057600080fd5b50600436106100625760003560e01c8063642f2eaf14610067578063689e1c031461009b5780637748c712146100ce57806388557b07146100fe5780638da5cb5b1461011a578063f692d47314610138575b600080fd5b610081600480360381019061007c9190610d7e565b610168565b6040516100929594939291906111a7565b60405180910390f35b6100b560048036038101906100b09190610da7565b6102ee565b6040516100c594939291906112c8565b60405180910390f35b6100e860048036038101906100e39190610e67565b6103dc565b6040516100f59190611208565b60405180910390f35b61011860048036038101906101139190610de8565b6107d8565b005b610122610af0565b60405161012f919061118c565b60405180910390f35b610152600480360381019061014d9190610da7565b610b14565b60405161015f9190611276565b60405180910390f35b60036020528060005260406000206000915090508060000160009054906101000a900473ffffffffffffffffffffffffffffffffffffffff16908060010160009054906101000a900473ffffffffffffffffffffffffffffffffffffffff16908060020180546101d790611562565b80601f016020809104026020016040519081016040528092919081815260200182805461020390611562565b80156102505780601f1061022557610100808354040283529160200191610250565b820191906000526020600020905b81548152906001019060200180831161023357829003601f168201915b50505050509080600301805461026590611562565b80601f016020809104026020016040519081016040528092919081815260200182805461029190611562565b80156102de5780601f106102b3576101008083540402835291602001916102de565b820191906000526020600020905b8154815290600101906020018083116102c157829003601f168201915b5050505050908060040154905085565b60018180516020810182018051848252602083016020850120818352809550505050505060009150905080600001805461032790611562565b80601f016020809104026020016040519081016040528092919081815260200182805461035390611562565b80156103a05780601f10610375576101008083540402835291602001916103a0565b820191906000526020600020905b81548152906001019060200180831161038357829003601f168201915b5050505050908060010160009054906101000a900473ffffffffffffffffffffffffffffffffffffffff16908060020154908060030154905084565b6000806001876040516103ef9190611140565b9081526020016040518091039020600001805461040b90611562565b90501161044d576040517f08c379a000000000000000000000000000000000000000000000000000000000815260040161044490611334565b60405180910390fd5b600060018660405161045f9190611140565b9081526020016040518091039020600001805461047b90611562565b9050116104bd576040517f08c379a00000000000000000000000000000000000000000000000000000000081526004016104b490611374565b60405180910390fd5b60008054906101000a900473ffffffffffffffffffffffffffffffffffffffff1673ffffffffffffffffffffffffffffffffffffffff163373ffffffffffffffffffffffffffffffffffffffff161461054b576040517f08c379a000000000000000000000000000000000000000000000000000000000815260040161054290611314565b60405180910390fd5b60006040518060a001604052803373ffffffffffffffffffffffffffffffffffffffff168152602001600073ffffffffffffffffffffffffffffffffffffffff16815260200188815260200187815260200184815250905060008787426040516020016105ba93929190611157565b604051602081830303815290604052805190602001209050816003600083815260200190815260200160002060008201518160000160006101000a81548173ffffffffffffffffffffffffffffffffffffffff021916908373ffffffffffffffffffffffffffffffffffffffff16021790555060208201518160010160006101000a81548173ffffffffffffffffffffffffffffffffffffffff021916908373ffffffffffffffffffffffffffffffffffffffff1602179055506040820151816002019080519060200190610690929190610bca565b5060608201518160030190805190602001906106ad929190610bca565b506080820151816004015590505060006001896040516106cd9190611140565b9081526020016040518091039020905060006001896040516106ef9190611140565b90815260200160405180910390209050816004018390806001815401808255809150506001900390600052602060002001600090919091909150558060050183908060018154018082558091505060019003906000526020600020016000909190919091505587826002016000828254610769919061143c565b9250508190555086816003016000828254610784919061143c565b925050819055507f154932a2dab13742f253cde4c7dcee3e1af91be7950a3b45ade0dba927528f33838b8b896040516107c09493929190611223565b60405180910390a18294505050505095945050505050565b600083511161081c576040517f08c379a000000000000000000000000000000000000000000000000000000000815260040161081390611394565b60405180910390fd5b600060028460405161082e9190611140565b9081526020016040518091039020805461084790611562565b905014610889576040517f08c379a000000000000000000000000000000000000000000000000000000000815260040161088090611354565b60405180910390fd5b8160028460405161089a9190611140565b908152602001604051809103902090805190602001906108bb929190610bca565b506040518060c001604052808381526020018273ffffffffffffffffffffffffffffffffffffffff1681526020016000815260200160008152602001600067ffffffffffffffff811115610938577f4e487b7100000000000000000000000000000000000000000000000000000000600052604160045260246000fd5b6040519080825280602002602001820160405280156109665781602001602082028036833780820191505090505b508152602001600067ffffffffffffffff8111156109ad577f4e487b7100000000000000000000000000000000000000000000000000000000600052604160045260246000fd5b6040519080825280602002602001820160405280156109db5781602001602082028036833780820191505090505b508152506001836040516109ef9190611140565b90815260200160405180910390206000820151816000019080519060200190610a19929190610bca565b5060208201518160010160006101000a81548173ffffffffffffffffffffffffffffffffffffffff021916908373ffffffffffffffffffffffffffffffffffffffff16021790555060408201518160020155606082015181600301556080820151816004019080519060200190610a91929190610c50565b5060a0820151816005019080519060200190610aae929190610c50565b509050507f5ff4076fa94dda141f4864d9f7399e1d6a35436d981e5fbcd9fb1e18bd83ecac8282604051610ae3929190611298565b60405180910390a1505050565b60008054906101000a900473ffffffffffffffffffffffffffffffffffffffff1681565b6002818051602081018201805184825260208301602085012081835280955050505050506000915090508054610b4990611562565b80601f0160208091040260200160405190810160405280929190818152602001828054610b7590611562565b8015610bc25780601f10610b9757610100808354040283529160200191610bc2565b820191906000526020600020905b815481529060010190602001808311610ba557829003601f168201915b505050505081565b828054610bd690611562565b90600052602060002090601f016020900481019282610bf85760008555610c3f565b82601f10610c1157805160ff1916838001178555610c3f565b82800160010185558215610c3f579182015b82811115610c3e578251825591602001919060010190610c23565b5b509050610c4c9190610c9d565b5090565b828054828255906000526020600020908101928215610c8c579160200282015b82811115610c8b578251825591602001919060010190610c70565b5b509050610c999190610cba565b5090565b5b80821115610cb6576000816000905550600101610c9e565b5090565b5b80821115610cd3576000816000905550600101610cbb565b5090565b6000610cea610ce5846113e5565b6113b4565b905082815260208101848484011115610d0257600080fd5b610d0d848285611520565b509392505050565b600081359050610d248161163c565b92915050565b600081359050610d3981611653565b92915050565b600082601f830112610d5057600080fd5b8135610d60848260208601610cd7565b91505092915050565b600081359050610d788161166a565b92915050565b600060208284031215610d9057600080fd5b6000610d9e84828501610d2a565b91505092915050565b600060208284031215610db957600080fd5b600082013567ffffffffffffffff811115610dd357600080fd5b610ddf84828501610d3f565b91505092915050565b600080600060608486031215610dfd57600080fd5b600084013567ffffffffffffffff811115610e1757600080fd5b610e2386828701610d3f565b935050602084013567ffffffffffffffff811115610e4057600080fd5b610e4c86828701610d3f565b9250506040610e5d86828701610d15565b9150509250925092565b600080600080600060a08688031215610e7f57600080fd5b600086013567ffffffffffffffff811115610e9957600080fd5b610ea588828901610d3f565b955050602086013567ffffffffffffffff811115610ec257600080fd5b610ece88828901610d3f565b9450506040610edf88828901610d69565b9350506060610ef088828901610d69565b9250506080610f0188828901610d69565b9150509295509295909350565b610f17816114ea565b82525050565b610f26816114a4565b82525050565b610f3581611492565b82525050565b610f44816114b6565b82525050565b6000610f5582611415565b610f5f8185611420565b9350610f6f81856020860161152f565b610f788161162b565b840191505092915050565b6000610f8e82611415565b610f988185611431565b9350610fa881856020860161152f565b80840191505092915050565b6000610fc1603883611420565b91507f4f6e6c7920746865206f776e6572206f662074686520636f6e7472616374206360008301527f616e207265676973746572207472616e73616374696f6e7300000000000000006020830152604082019050919050565b6000611027601f83611420565b91507f536572766963652070726f766964657220646f6573206e6f74206578697374006000830152602082019050919050565b6000611067601383611420565b91507f5573657220616c726561647920657869737473000000000000000000000000006000830152602082019050919050565b60006110a7602083611420565b91507f5365727669636520726563697069656e7420646f6573206e6f742065786973746000830152602082019050919050565b60006110e7601c83611420565b91507f576f726c64636f696e2069642063616e6e6f7420626520656d707479000000006000830152602082019050919050565b611123816114e0565b82525050565b61113a611135826114e0565b611594565b82525050565b600061114c8284610f83565b915081905092915050565b60006111638286610f83565b915061116f8285610f83565b915061117b8284611129565b602082019150819050949350505050565b60006020820190506111a16000830184610f2c565b92915050565b600060a0820190506111bc6000830188610f1d565b6111c96020830187610f1d565b81810360408301526111db8186610f4a565b905081810360608301526111ef8185610f4a565b90506111fe608083018461111a565b9695505050505050565b600060208201905061121d6000830184610f3b565b92915050565b60006080820190506112386000830187610f3b565b818103602083015261124a8186610f4a565b9050818103604083015261125e8185610f4a565b905061126d606083018461111a565b95945050505050565b600060208201905081810360008301526112908184610f4a565b905092915050565b600060408201905081810360008301526112b28185610f4a565b90506112c16020830184610f0e565b9392505050565b600060808201905081810360008301526112e28187610f4a565b90506112f16020830186610f1d565b6112fe604083018561111a565b61130b606083018461111a565b95945050505050565b6000602082019050818103600083015261132d81610fb4565b9050919050565b6000602082019050818103600083015261134d8161101a565b9050919050565b6000602082019050818103600083015261136d8161105a565b9050919050565b6000602082019050818103600083015261138d8161109a565b9050919050565b600060208201905081810360008301526113ad816110da565b9050919050565b6000604051905081810181811067ffffffffffffffff821117156113db576113da6115fc565b5b8060405250919050565b600067ffffffffffffffff821115611400576113ff6115fc565b5b601f19601f8301169050602081019050919050565b600081519050919050565b600082825260208201905092915050565b600081905092915050565b6000611447826114e0565b9150611452836114e0565b9250827fffffffffffffffffffffffffffffffffffffffffffffffffffffffffffffffff038211156114875761148661159e565b5b828201905092915050565b600061149d826114c0565b9050919050565b60006114af826114c0565b9050919050565b6000819050919050565b600073ffffffffffffffffffffffffffffffffffffffff82169050919050565b6000819050919050565b60006114f5826114fc565b9050919050565b60006115078261150e565b9050919050565b6000611519826114c0565b9050919050565b82818337600083830152505050565b60005b8381101561154d578082015181840152602081019050611532565b8381111561155c576000848401525b50505050565b6000600282049050600182168061157a57607f821691505b6020821081141561158e5761158d6115cd565b5b50919050565b6000819050919050565b7f4e487b7100000000000000000000000000000000000000000000000000000000600052601160045260246000fd5b7f4e487b7100000000000000000000000000000000000000000000000000000000600052602260045260246000fd5b7f4e487b7100000000000000000000000000000000000000000000000000000000600052604160045260246000fd5b6000601f19601f8301169050919050565b611645816114a4565b811461165057600080fd5b50565b61165c816114b6565b811461166757600080fd5b50565b611673816114e0565b811461167e57600080fd5b5056fea264697066735822122045e76ef9026815c39a5099afc83f210049aa4234e3791f8d62836cf1a96235ee64736f6c63430008000033",
  "linkReferences": {},
  "deployedLinkReferences": {}
}